{
  "_format": "hh-sol-artifact-1",
  "contractName": "Game",
  "sourceName": "contracts/game.sol",
  "abi": [
    {
      "inputs": [
        {
          "internalType": "contract ALCHI",
          "name": "_token",
          "type": "address"
        }
      ],
      "stateMutability": "nonpayable",
      "type": "constructor"
    },
    {
      "anonymous": false,
      "inputs": [
        {
          "indexed": true,
          "internalType": "address",
          "name": "account",
          "type": "address"
        },
        {
          "indexed": true,
          "internalType": "address",
          "name": "operator",
          "type": "address"
        },
        {
          "indexed": false,
          "internalType": "bool",
          "name": "approved",
          "type": "bool"
        }
      ],
      "name": "ApprovalForAll",
      "type": "event"
    },
    {
      "anonymous": false,
      "inputs": [
        {
          "indexed": true,
          "internalType": "address",
          "name": "operator",
          "type": "address"
        },
        {
          "indexed": true,
          "internalType": "address",
          "name": "from",
          "type": "address"
        },
        {
          "indexed": true,
          "internalType": "address",
          "name": "to",
          "type": "address"
        },
        {
          "indexed": false,
          "internalType": "uint256[]",
          "name": "ids",
          "type": "uint256[]"
        },
        {
          "indexed": false,
          "internalType": "uint256[]",
          "name": "values",
          "type": "uint256[]"
        }
      ],
      "name": "TransferBatch",
      "type": "event"
    },
    {
      "anonymous": false,
      "inputs": [
        {
          "indexed": true,
          "internalType": "address",
          "name": "operator",
          "type": "address"
        },
        {
          "indexed": true,
          "internalType": "address",
          "name": "from",
          "type": "address"
        },
        {
          "indexed": true,
          "internalType": "address",
          "name": "to",
          "type": "address"
        },
        {
          "indexed": false,
          "internalType": "uint256",
          "name": "id",
          "type": "uint256"
        },
        {
          "indexed": false,
          "internalType": "uint256",
          "name": "value",
          "type": "uint256"
        }
      ],
      "name": "TransferSingle",
      "type": "event"
    },
    {
      "anonymous": false,
      "inputs": [
        {
          "indexed": false,
          "internalType": "string",
          "name": "value",
          "type": "string"
        },
        {
          "indexed": true,
          "internalType": "uint256",
          "name": "id",
          "type": "uint256"
        }
      ],
      "name": "URI",
      "type": "event"
    },
    {
      "inputs": [],
      "name": "Air",
      "outputs": [
        {
          "internalType": "uint256",
          "name": "",
          "type": "uint256"
        }
      ],
      "stateMutability": "view",
      "type": "function"
    },
    {
      "inputs": [],
      "name": "Bitcoin",
      "outputs": [
        {
          "internalType": "uint256",
          "name": "",
          "type": "uint256"
        }
      ],
      "stateMutability": "view",
      "type": "function"
    },
    {
      "inputs": [],
      "name": "Blockchain",
      "outputs": [
        {
          "internalType": "uint256",
          "name": "",
          "type": "uint256"
        }
      ],
      "stateMutability": "view",
      "type": "function"
    },
    {
      "inputs": [],
      "name": "Computer",
      "outputs": [
        {
          "internalType": "uint256",
          "name": "",
          "type": "uint256"
        }
      ],
      "stateMutability": "view",
      "type": "function"
    },
    {
      "inputs": [],
      "name": "Earth",
      "outputs": [
        {
          "internalType": "uint256",
          "name": "",
          "type": "uint256"
        }
      ],
      "stateMutability": "view",
      "type": "function"
    },
    {
      "inputs": [],
      "name": "Electricity",
      "outputs": [
        {
          "internalType": "uint256",
          "name": "",
          "type": "uint256"
        }
      ],
      "stateMutability": "view",
      "type": "function"
    },
    {
      "inputs": [],
      "name": "Energy",
      "outputs": [
        {
          "internalType": "uint256",
          "name": "",
          "type": "uint256"
        }
      ],
      "stateMutability": "view",
      "type": "function"
    },
    {
      "inputs": [],
      "name": "Eyeglasses",
      "outputs": [
        {
          "internalType": "uint256",
          "name": "",
          "type": "uint256"
        }
      ],
      "stateMutability": "view",
      "type": "function"
    },
    {
      "inputs": [],
      "name": "Fire",
      "outputs": [
        {
          "internalType": "uint256",
          "name": "",
          "type": "uint256"
        }
      ],
      "stateMutability": "view",
      "type": "function"
    },
    {
      "inputs": [],
      "name": "Glass",
      "outputs": [
        {
          "internalType": "uint256",
          "name": "",
          "type": "uint256"
        }
      ],
      "stateMutability": "view",
      "type": "function"
    },
    {
      "inputs": [],
      "name": "Human",
      "outputs": [
        {
          "internalType": "uint256",
          "name": "",
          "type": "uint256"
        }
      ],
      "stateMutability": "view",
      "type": "function"
    },
    {
      "inputs": [],
      "name": "Internet",
      "outputs": [
        {
          "internalType": "uint256",
          "name": "",
          "type": "uint256"
        }
      ],
      "stateMutability": "view",
      "type": "function"
    },
    {
      "inputs": [],
      "name": "Lava",
      "outputs": [
        {
          "internalType": "uint256",
          "name": "",
          "type": "uint256"
        }
      ],
      "stateMutability": "view",
      "type": "function"
    },
    {
      "inputs": [],
      "name": "Life",
      "outputs": [
        {
          "internalType": "uint256",
          "name": "",
          "type": "uint256"
        }
      ],
      "stateMutability": "view",
      "type": "function"
    },
    {
      "inputs": [],
      "name": "Metal",
      "outputs": [
        {
          "internalType": "uint256",
          "name": "",
          "type": "uint256"
        }
      ],
      "stateMutability": "view",
      "type": "function"
    },
    {
      "inputs": [],
      "name": "Mud",
      "outputs": [
        {
          "internalType": "uint256",
          "name": "",
          "type": "uint256"
        }
      ],
      "stateMutability": "view",
      "type": "function"
    },
    {
      "inputs": [],
      "name": "Nerd",
      "outputs": [
        {
          "internalType": "uint256",
          "name": "",
          "type": "uint256"
        }
      ],
      "stateMutability": "view",
      "type": "function"
    },
    {
      "inputs": [],
      "name": "Plant",
      "outputs": [
        {
          "internalType": "uint256",
          "name": "",
          "type": "uint256"
        }
      ],
      "stateMutability": "view",
      "type": "function"
    },
    {
      "inputs": [],
      "name": "Rain",
      "outputs": [
        {
          "internalType": "uint256",
          "name": "",
          "type": "uint256"
        }
      ],
      "stateMutability": "view",
      "type": "function"
    },
    {
      "inputs": [],
      "name": "Rock",
      "outputs": [
        {
          "internalType": "uint256",
          "name": "",
          "type": "uint256"
        }
      ],
      "stateMutability": "view",
      "type": "function"
    },
    {
      "inputs": [],
      "name": "Sand",
      "outputs": [
        {
          "internalType": "uint256",
          "name": "",
          "type": "uint256"
        }
      ],
      "stateMutability": "view",
      "type": "function"
    },
    {
      "inputs": [],
      "name": "Steam",
      "outputs": [
        {
          "internalType": "uint256",
          "name": "",
          "type": "uint256"
        }
      ],
      "stateMutability": "view",
      "type": "function"
    },
    {
      "inputs": [],
      "name": "Swamp",
      "outputs": [
        {
          "internalType": "uint256",
          "name": "",
          "type": "uint256"
        }
      ],
      "stateMutability": "view",
      "type": "function"
    },
    {
      "inputs": [],
      "name": "Water",
      "outputs": [
        {
          "internalType": "uint256",
          "name": "",
          "type": "uint256"
        }
      ],
      "stateMutability": "view",
      "type": "function"
    },
    {
      "inputs": [
        {
          "internalType": "address",
          "name": "account",
          "type": "address"
        },
        {
          "internalType": "uint256",
          "name": "id",
          "type": "uint256"
        }
      ],
      "name": "balanceOf",
      "outputs": [
        {
          "internalType": "uint256",
          "name": "",
          "type": "uint256"
        }
      ],
      "stateMutability": "view",
      "type": "function"
    },
    {
      "inputs": [
        {
          "internalType": "address[]",
          "name": "accounts",
          "type": "address[]"
        },
        {
          "internalType": "uint256[]",
          "name": "ids",
          "type": "uint256[]"
        }
      ],
      "name": "balanceOfBatch",
      "outputs": [
        {
          "internalType": "uint256[]",
          "name": "",
          "type": "uint256[]"
        }
      ],
      "stateMutability": "view",
      "type": "function"
    },
    {
      "inputs": [],
      "name": "fee",
      "outputs": [
        {
          "internalType": "uint256",
          "name": "",
          "type": "uint256"
        }
      ],
      "stateMutability": "view",
      "type": "function"
    },
    {
      "inputs": [
        {
          "internalType": "address",
          "name": "account",
          "type": "address"
        },
        {
          "internalType": "address",
          "name": "operator",
          "type": "address"
        }
      ],
      "name": "isApprovedForAll",
      "outputs": [
        {
          "internalType": "bool",
          "name": "",
          "type": "bool"
        }
      ],
      "stateMutability": "view",
      "type": "function"
    },
    {
      "inputs": [],
      "name": "mintBitcoin",
      "outputs": [],
      "stateMutability": "nonpayable",
      "type": "function"
    },
    {
      "inputs": [],
      "name": "mintBlockchain",
      "outputs": [],
      "stateMutability": "nonpayable",
      "type": "function"
    },
    {
      "inputs": [],
      "name": "mintComputer",
      "outputs": [],
      "stateMutability": "nonpayable",
      "type": "function"
    },
    {
      "inputs": [],
      "name": "mintElectricity",
      "outputs": [],
      "stateMutability": "nonpayable",
      "type": "function"
    },
    {
      "inputs": [],
      "name": "mintEnergy",
      "outputs": [],
      "stateMutability": "nonpayable",
      "type": "function"
    },
    {
      "inputs": [],
      "name": "mintEyeglasses",
      "outputs": [],
      "stateMutability": "nonpayable",
      "type": "function"
    },
    {
      "inputs": [],
      "name": "mintGlass",
      "outputs": [],
      "stateMutability": "nonpayable",
      "type": "function"
    },
    {
      "inputs": [],
      "name": "mintHuman",
      "outputs": [],
      "stateMutability": "nonpayable",
      "type": "function"
    },
    {
      "inputs": [],
      "name": "mintInternet",
      "outputs": [],
      "stateMutability": "nonpayable",
      "type": "function"
    },
    {
      "inputs": [],
      "name": "mintLava",
      "outputs": [],
      "stateMutability": "nonpayable",
      "type": "function"
    },
    {
      "inputs": [],
      "name": "mintLife",
      "outputs": [],
      "stateMutability": "nonpayable",
      "type": "function"
    },
    {
      "inputs": [],
      "name": "mintMetal",
      "outputs": [],
      "stateMutability": "nonpayable",
      "type": "function"
    },
    {
      "inputs": [],
      "name": "mintMud",
      "outputs": [],
      "stateMutability": "nonpayable",
      "type": "function"
    },
    {
      "inputs": [],
      "name": "mintNerd",
      "outputs": [],
      "stateMutability": "nonpayable",
      "type": "function"
    },
    {
      "inputs": [],
      "name": "mintPlant",
      "outputs": [],
      "stateMutability": "nonpayable",
      "type": "function"
    },
    {
      "inputs": [],
      "name": "mintRain",
      "outputs": [],
      "stateMutability": "nonpayable",
      "type": "function"
    },
    {
      "inputs": [],
      "name": "mintRock",
      "outputs": [],
      "stateMutability": "nonpayable",
      "type": "function"
    },
    {
      "inputs": [],
      "name": "mintSand",
      "outputs": [],
      "stateMutability": "nonpayable",
      "type": "function"
    },
    {
      "inputs": [],
      "name": "mintStandard",
      "outputs": [],
      "stateMutability": "nonpayable",
      "type": "function"
    },
    {
      "inputs": [],
      "name": "mintSteam",
      "outputs": [],
      "stateMutability": "nonpayable",
      "type": "function"
    },
    {
      "inputs": [],
      "name": "mintSwamp",
      "outputs": [],
      "stateMutability": "nonpayable",
      "type": "function"
    },
    {
      "inputs": [
        {
          "internalType": "address",
          "name": "from",
          "type": "address"
        },
        {
          "internalType": "address",
          "name": "to",
          "type": "address"
        },
        {
          "internalType": "uint256[]",
          "name": "ids",
          "type": "uint256[]"
        },
        {
          "internalType": "uint256[]",
          "name": "amounts",
          "type": "uint256[]"
        },
        {
          "internalType": "bytes",
          "name": "data",
          "type": "bytes"
        }
      ],
      "name": "safeBatchTransferFrom",
      "outputs": [],
      "stateMutability": "nonpayable",
      "type": "function"
    },
    {
      "inputs": [
        {
          "internalType": "address",
          "name": "from",
          "type": "address"
        },
        {
          "internalType": "address",
          "name": "to",
          "type": "address"
        },
        {
          "internalType": "uint256",
          "name": "id",
          "type": "uint256"
        },
        {
          "internalType": "uint256",
          "name": "amount",
          "type": "uint256"
        },
        {
          "internalType": "bytes",
          "name": "data",
          "type": "bytes"
        }
      ],
      "name": "safeTransferFrom",
      "outputs": [],
      "stateMutability": "nonpayable",
      "type": "function"
    },
    {
      "inputs": [
        {
          "internalType": "address",
          "name": "operator",
          "type": "address"
        },
        {
          "internalType": "bool",
          "name": "approved",
          "type": "bool"
        }
      ],
      "name": "setApprovalForAll",
      "outputs": [],
      "stateMutability": "nonpayable",
      "type": "function"
    },
    {
      "inputs": [
        {
          "internalType": "address",
          "name": "_account",
          "type": "address"
        }
      ],
      "name": "setfundAddress",
      "outputs": [],
      "stateMutability": "nonpayable",
      "type": "function"
    },
    {
      "inputs": [
        {
          "internalType": "bytes4",
          "name": "interfaceId",
          "type": "bytes4"
        }
      ],
      "name": "supportsInterface",
      "outputs": [
        {
          "internalType": "bool",
          "name": "",
          "type": "bool"
        }
      ],
      "stateMutability": "view",
      "type": "function"
    },
    {
      "inputs": [],
      "name": "token",
      "outputs": [
        {
          "internalType": "contract ALCHI",
          "name": "",
          "type": "address"
        }
      ],
      "stateMutability": "view",
      "type": "function"
    },
    {
      "inputs": [],
      "name": "totalNFT",
      "outputs": [
        {
          "internalType": "uint256",
          "name": "",
          "type": "uint256"
        }
      ],
      "stateMutability": "view",
      "type": "function"
    },
    {
      "inputs": [],
      "name": "totalSupply",
      "outputs": [
        {
          "internalType": "uint256",
          "name": "",
          "type": "uint256"
        }
      ],
      "stateMutability": "view",
      "type": "function"
    },
    {
      "inputs": [
        {
          "internalType": "uint256",
          "name": "",
          "type": "uint256"
        }
      ],
      "name": "uri",
      "outputs": [
        {
          "internalType": "string",
          "name": "",
          "type": "string"
        }
      ],
      "stateMutability": "view",
      "type": "function"
    }
  ],
  "bytecode": "0x608060405260006004553480156200001657600080fd5b506040516200306738038062003067833981016040819052620000399162000159565b6040518060800160405280605a81526020016200300d605a91396200005e816200009a565b50600380546001600160a01b039092166001600160a01b03199283161790556006805490911633179055678ac7230489e80000600555620001c6565b8051620000af906002906020840190620000b3565b5050565b828054620000c19062000189565b90600052602060002090601f016020900481019282620000e5576000855562000130565b82601f106200010057805160ff191683800117855562000130565b8280016001018555821562000130579182015b828111156200013057825182559160200191906001019062000113565b506200013e92915062000142565b5090565b5b808211156200013e576000815560010162000143565b6000602082840312156200016b578081fd5b81516001600160a01b038116811462000182578182fd5b9392505050565b6002810460018216806200019e57607f821691505b60208210811415620001c057634e487b7160e01b600052602260045260246000fd5b50919050565b612e3780620001d66000396000f3fe608060405234801561001057600080fd5b506004361061038c5760003560e01c80636e69adcf116101de578063ba8f4acf1161010f578063e2acaeef116100ad578063eb4bb8df1161007c578063eb4bb8df146105d8578063f242432a146105e0578063f37633f9146105f3578063fc0c546a146105fb5761038c565b8063e2acaeef146105ad578063e985e9c5146105b5578063e9e31a33146105c8578063eb2a1f4f146105d05761038c565b8063cbf904b4116100e9578063cbf904b41461058d578063d50b57c314610595578063d73412db1461059d578063ddca3f43146105a55761038c565b8063ba8f4acf14610575578063c40014961461057d578063cb9d7c16146105855761038c565b8063a1ac2fef1161017c578063a64f64f211610156578063a64f64f214610555578063ae726b3d1461055d578063b29d81f014610565578063b870dcf61461056d5761038c565b8063a1ac2fef14610532578063a22cb4651461053a578063a23b791a1461054d5761038c565b806376bde502116101b857806376bde502146105075780637e0616601461050f578063908ee14014610517578063a151939f1461051f5761038c565b80636e69adcf146104ef5780636f0fa17f146104f757806374afa174146104ff5761038c565b80632f35a71e116102c357806353b1b49b116102615780635f2f63aa116102305780635f2f63aa146104cf5780635f72cc8f146104d757806360689557146104df5780636aecfb3f146104e75761038c565b806353b1b49b146104af57806355aeceea146104b7578063588e3c7a146104bf5780635952828c146104c75761038c565b806344b2f8c41161029d57806344b2f8c414610477578063474ce3681461047f5780634c2e5d82146104875780634e1273f41461048f5761038c565b80632f35a71e1461045f5780633d82e89714610467578063422b5e3e1461046f5761038c565b806318160ddd11610330578063214a827c1161030a578063214a827c14610434578063299ccd011461043c5780632aaa6b19146104445780632eb2c2d61461044c5761038c565b806318160ddd1461041c57806319c34d1e1461042457806320ec885b1461042c5761038c565b80630e89341c1161036c5780630e89341c146103e2578063140d01531461040257806314c539ef1461040c57806316625b8a146104145761038c565b806245637914610391578062fdd58e146103af57806301ffc9a7146103c2575b600080fd5b610399610610565b6040516103a69190612bf3565b60405180910390f35b6103996103bd3660046121fe565b610616565b6103d56103d036600461230c565b61066d565b6040516103a691906124e9565b6103f56103f0366004612344565b6106b5565b6040516103a69190612508565b61040a610749565b005b61039961088c565b610399610891565b610399610896565b61039961089d565b61040a6108a2565b61040a6109c6565b610399610a5a565b61040a610a5f565b61040a61045a3660046120bf565b610af3565b610399610b51565b61040a610b56565b61040a610bea565b61040a610c7e565b610399610d12565b61040a610d17565b6104a261049d366004612227565b610dab565b6040516103a691906124a8565b610399610ecb565b610399610ed0565b610399610ed5565b610399610eda565b61040a610edf565b610399610f73565b610399610f78565b610399610f7d565b610399610f82565b61040a610f87565b61039961101b565b610399611020565b610399611025565b61040a61102a565b61040a61052d36600461206c565b6110be565b61040a6110f7565b61040a6105483660046121c8565b61118b565b6103996111a1565b61040a6111a6565b61040a61123a565b61040a6112ce565b61040a611362565b61040a6113f6565b61040a611501565b61040a611595565b610399611629565b61039961162e565b610399611633565b610399611638565b61040a61163e565b6103d56105c336600461208d565b6116d2565b610399611700565b610399611705565b61040a61170a565b61040a6105ee366004612165565b61179e565b6103996117f5565b6106036117fa565b6040516103a691906124f4565b60045481565b60006001600160a01b0383166106475760405162461bcd60e51b815260040161063e9061278a565b60405180910390fd5b506000908152602081815260408083206001600160a01b03949094168352929052205490565b60006001600160e01b03198216636cdb3d1360e11b148061069e57506001600160e01b031982166303a24d0760e21b145b806106ad57506106ad82611809565b90505b919050565b6060600280546106c490612c85565b80601f01602080910402602001604051908101604052809291908181526020018280546106f090612c85565b801561073d5780601f106107125761010080835404028352916020019161073d565b820191906000526020600020905b81548152906001019060200180831161072057829003601f168201915b50505050509050919050565b6000610756336016610616565b116107735760405162461bcd60e51b815260040161063e90612753565b6000610780336013610616565b1161079d5760405162461bcd60e51b815260040161063e90612725565b600480549060006107ad83612ced565b91905055506107dd336017600160405180604001604052806005815260200164030783030360dc1b815250611822565b6003546007546005546040516323b872dd60e01b81526001600160a01b03938416936323b872dd93610818933393929091169160040161243f565b602060405180830381600087803b15801561083257600080fd5b505af1158015610846573d6000803e3d6000fd5b505050506040513d601f19601f8201168201806040525081019061086a91906122f0565b50601860045460055461087d9190612c66565b6108879190612c46565b600555565b600281565b600181565b6004545b90565b601381565b60006108af336011610616565b116108cc5760405162461bcd60e51b815260040161063e90612606565b60006108d9336003610616565b116108f65760405162461bcd60e51b815260040161063e90612830565b6004805490600061090683612ced565b9190505550610936336012600160405180604001604052806005815260200164030783030360dc1b815250611822565b6003546007546005546040516323b872dd60e01b81526001600160a01b03938416936323b872dd93610971933393929091169160040161243f565b602060405180830381600087803b15801561098b57600080fd5b505af115801561099f573d6000803e3d6000fd5b505050506040513d601f19601f820116820180604052508101906109c391906122f0565b50565b60006109d3336000610616565b116109f05760405162461bcd60e51b815260040161063e90612634565b60006109fd336001610616565b11610a1a5760405162461bcd60e51b815260040161063e9061285f565b60048054906000610a2a83612ced565b9190505550610936336007600160405180604001604052806005815260200164030783030360dc1b815250611822565b600d81565b6000610a6c336001610616565b11610a895760405162461bcd60e51b815260040161063e9061285f565b6000610a9633600a610616565b11610ab35760405162461bcd60e51b815260040161063e906127d4565b60048054906000610ac383612ced565b919050555061093633600b600160405180604001604052806005815260200164030783030360dc1b815250611822565b610afb611933565b6001600160a01b0316856001600160a01b03161480610b215750610b21856105c3611933565b610b3d5760405162461bcd60e51b815260040161063e9061256f565b610b4a8585858585611937565b5050505050565b601681565b6000610b63336010610616565b11610b805760405162461bcd60e51b815260040161063e906128d1565b6000610b8d336013610616565b11610baa5760405162461bcd60e51b815260040161063e90612725565b60048054906000610bba83612ced565b9190505550610936336014600160405180604001604052806005815260200164030783030360dc1b815250611822565b6000610bf7336002610616565b11610c145760405162461bcd60e51b815260040161063e90612802565b6000610c2133600b610616565b11610c3e5760405162461bcd60e51b815260040161063e90612a44565b60048054906000610c4e83612ced565b919050555061093633600d600160405180604001604052806005815260200164030783030360dc1b815250611822565b6000610c8b336005610616565b11610ca85760405162461bcd60e51b815260040161063e906126c8565b6000610cb5336008610616565b11610cd25760405162461bcd60e51b815260040161063e906126f8565b60048054906000610ce283612ced565b9190505550610936336011600160405180604001604052806005815260200164030783030360dc1b815250611822565b601481565b6000610d24336005610616565b11610d415760405162461bcd60e51b815260040161063e906126c8565b6000610d4e33600c610616565b11610d6b5760405162461bcd60e51b815260040161063e906129b8565b60048054906000610d7b83612ced565b9190505550610936336010600160405180604001604052806005815260200164030783030360dc1b815250611822565b60608151835114610dce5760405162461bcd60e51b815260040161063e90612abb565b6000835167ffffffffffffffff811115610df857634e487b7160e01b600052604160045260246000fd5b604051908082528060200260200182016040528015610e21578160200160208202803683370190505b50905060005b8451811015610ec357610e88858281518110610e5357634e487b7160e01b600052603260045260246000fd5b6020026020010151858381518110610e7b57634e487b7160e01b600052603260045260246000fd5b6020026020010151610616565b828281518110610ea857634e487b7160e01b600052603260045260246000fd5b6020908102919091010152610ebc81612ced565b9050610e27565b509392505050565b601281565b600e81565b600481565b601081565b6000610eec336002610616565b11610f095760405162461bcd60e51b815260040161063e90612802565b6000610f16336001610616565b11610f335760405162461bcd60e51b815260040161063e9061285f565b60048054906000610f4383612ced565b9190505550610936336005600160405180604001604052806005815260200164030783030360dc1b815250611822565b600581565b600a81565b600881565b600081565b6000610f94336000610616565b11610fb15760405162461bcd60e51b815260040161063e90612634565b6000610fbe336003610616565b11610fdb5760405162461bcd60e51b815260040161063e90612830565b60048054906000610feb83612ced565b9190505550610936336008600160405180604001604052806005815260200164030783030360dc1b815250611822565b600681565b600781565b600981565b6000611037336014610616565b116110545760405162461bcd60e51b815260040161063e90612663565b6000611061336014610616565b1161107e5760405162461bcd60e51b815260040161063e90612663565b6004805490600061108e83612ced565b9190505550610936336015600160405180604001604052806005815260200164030783030360dc1b815250611822565b6006546001600160a01b031633146110d557600080fd5b600780546001600160a01b0319166001600160a01b0392909216919091179055565b6000611104336001610616565b116111215760405162461bcd60e51b815260040161063e9061285f565b600061112e336006610616565b1161114b5760405162461bcd60e51b815260040161063e90612a16565b6004805490600061115b83612ced565b919050555061093633600a600160405180604001604052806005815260200164030783030360dc1b815250611822565b61119d611196611933565b8383611b16565b5050565b601781565b60006111b3336002610616565b116111d05760405162461bcd60e51b815260040161063e90612802565b60006111dd33600a610616565b116111fa5760405162461bcd60e51b815260040161063e906127d4565b6004805490600061120a83612ced565b919050555061093633600c600160405180604001604052806005815260200164030783030360dc1b815250611822565b6000611247336000610616565b116112645760405162461bcd60e51b815260040161063e90612634565b6000611271336002610616565b1161128e5760405162461bcd60e51b815260040161063e90612802565b6004805490600061129e83612ced565b9190505550610936336004600160405180604001604052806005815260200164030783030360dc1b815250611822565b60006112db336009610616565b116112f85760405162461bcd60e51b815260040161063e90612952565b6000611305336008610616565b116113225760405162461bcd60e51b815260040161063e906126f8565b6004805490600061133283612ced565b919050555061093633600e600160405180604001604052806005815260200164030783030360dc1b815250611822565b600061136f336014610616565b1161138c5760405162461bcd60e51b815260040161063e90612663565b6000611399336015610616565b116113b65760405162461bcd60e51b815260040161063e90612b8d565b600480549060006113c683612ced565b9190505550610936336016600160405180604001604052806005815260200164030783030360dc1b815250611822565b611421336000600160405180604001604052806005815260200164030783030360dc1b815250611822565b61144b3360018060405180604001604052806005815260200164030783030360dc1b815250611822565b611476336002600160405180604001604052806005815260200164030783030360dc1b815250611822565b6114a1336003600160405180604001604052806005815260200164030783030360dc1b815250611822565b60048060008282546114b39190612c2e565b90915550506003546007546005546001600160a01b03928316926323b872dd9233929116906114e3906004612c66565b6040518463ffffffff1660e01b81526004016109719392919061243f565b600061150e33600d610616565b1161152b5760405162461bcd60e51b815260040161063e906129e7565b600061153833600d610616565b116115555760405162461bcd60e51b815260040161063e906129e7565b6004805490600061156583612ced565b919050555061093633600f600160405180604001604052806005815260200164030783030360dc1b815250611822565b60006115a2336007610616565b116115bf5760405162461bcd60e51b815260040161063e9061269a565b60006115cc336003610616565b116115e95760405162461bcd60e51b815260040161063e90612830565b600480549060006115f983612ced565b9190505550610936336009600160405180604001604052806005815260200164030783030360dc1b815250611822565b600b81565b601181565b600381565b60055481565b600061164b33600f610616565b116116685760405162461bcd60e51b815260040161063e90612981565b6000611675336012610616565b116116925760405162461bcd60e51b815260040161063e90612bc4565b600480549060006116a283612ced565b9190505550610936336013600160405180604001604052806005815260200164030783030360dc1b815250611822565b6001600160a01b03918216600090815260016020908152604080832093909416825291909152205460ff1690565b600f81565b600c81565b6000611717336002610616565b116117345760405162461bcd60e51b815260040161063e90612802565b6000611741336003610616565b1161175e5760405162461bcd60e51b815260040161063e90612830565b6004805490600061176e83612ced565b9190505550610936336006600160405180604001604052806005815260200164030783030360dc1b815250611822565b6117a6611933565b6001600160a01b0316856001600160a01b031614806117cc57506117cc856105c3611933565b6117e85760405162461bcd60e51b815260040161063e9061256f565b610b4a8585858585611bb9565b601581565b6003546001600160a01b031681565b6001600160e01b031981166301ffc9a760e01b14919050565b6001600160a01b0384166118485760405162461bcd60e51b815260040161063e90612b4c565b6000611852611933565b9050600061185f85611d16565b9050600061186c85611d16565b905061187d83600089858589611b0e565b6000868152602081815260408083206001600160a01b038b168452909152812080548792906118ad908490612c2e565b92505081905550866001600160a01b031660006001600160a01b0316846001600160a01b03167fc3d58168c5ae7397731d063d5bbf3d657854427343f4c083240f7aacaa2d0f628989604051611904929190612bfc565b60405180910390a461191b83600089858589611b0e565b61192a83600089898989611d6f565b50505050505050565b3390565b81518351146119585760405162461bcd60e51b815260040161063e90612b04565b6001600160a01b03841661197e5760405162461bcd60e51b815260040161063e9061288c565b6000611988611933565b9050611998818787878787611b0e565b60005b8451811015611a9a5760008582815181106119c657634e487b7160e01b600052603260045260246000fd5b6020026020010151905060008583815181106119f257634e487b7160e01b600052603260045260246000fd5b602090810291909101810151600084815280835260408082206001600160a01b038e168352909352919091205490915081811015611a425760405162461bcd60e51b815260040161063e90612908565b6000838152602081815260408083206001600160a01b038e8116855292528083208585039055908b16825281208054849290611a7f908490612c2e565b9250508190555050505080611a9390612ced565b905061199b565b50846001600160a01b0316866001600160a01b0316826001600160a01b03167f4a39dc06d4c0dbc64b70af90fd698a233a518aa5d07e595d983b8c0526c8f7fb8787604051611aea9291906124bb565b60405180910390a4611b00818787878787611b0e565b611b0e818787878787611e94565b505050505050565b816001600160a01b0316836001600160a01b03161415611b485760405162461bcd60e51b815260040161063e90612a72565b6001600160a01b0383811660008181526001602090815260408083209487168084529490915290819020805460ff1916851515179055517f17307eab39ab6107e8899845ad3d59bd9653f200f220920489ca2b5937696c3190611bac9085906124e9565b60405180910390a3505050565b6001600160a01b038416611bdf5760405162461bcd60e51b815260040161063e9061288c565b6000611be9611933565b90506000611bf685611d16565b90506000611c0385611d16565b9050611c13838989858589611b0e565b6000868152602081815260408083206001600160a01b038c16845290915290205485811015611c545760405162461bcd60e51b815260040161063e90612908565b6000878152602081815260408083206001600160a01b038d8116855292528083208985039055908a16825281208054889290611c91908490612c2e565b92505081905550876001600160a01b0316896001600160a01b0316856001600160a01b03167fc3d58168c5ae7397731d063d5bbf3d657854427343f4c083240f7aacaa2d0f628a8a604051611ce7929190612bfc565b60405180910390a4611cfd848a8a86868a611b0e565b611d0b848a8a8a8a8a611d6f565b505050505050505050565b60408051600180825281830190925260609160009190602080830190803683370190505090508281600081518110611d5e57634e487b7160e01b600052603260045260246000fd5b602090810291909101015292915050565b611d81846001600160a01b0316611f65565b15611b0e5760405163f23a6e6160e01b81526001600160a01b0385169063f23a6e6190611dba9089908990889088908890600401612463565b602060405180830381600087803b158015611dd457600080fd5b505af1925050508015611e04575060408051601f3d908101601f19168201909252611e0191810190612328565b60015b611e6457611e10612d34565b806308c379a01415611e4a5750611e25612d4b565b80611e305750611e4c565b8060405162461bcd60e51b815260040161063e9190612508565b505b60405162461bcd60e51b815260040161063e9061251b565b6001600160e01b0319811663f23a6e6160e01b1461192a5760405162461bcd60e51b815260040161063e906125be565b611ea6846001600160a01b0316611f65565b15611b0e5760405163bc197c8160e01b81526001600160a01b0385169063bc197c8190611edf90899089908890889088906004016123e1565b602060405180830381600087803b158015611ef957600080fd5b505af1925050508015611f29575060408051601f3d908101601f19168201909252611f2691810190612328565b60015b611f3557611e10612d34565b6001600160e01b0319811663bc197c8160e01b1461192a5760405162461bcd60e51b815260040161063e906125be565b6001600160a01b03163b151590565b80356001600160a01b03811681146106b057600080fd5b600082601f830112611f9b578081fd5b81356020611fa882612c0a565b604051611fb58282612cc0565b838152828101915085830183850287018401881015611fd2578586fd5b855b85811015611ff057813584529284019290840190600101611fd4565b5090979650505050505050565b600082601f83011261200d578081fd5b813567ffffffffffffffff81111561202757612027612d1e565b60405161203e601f8301601f191660200182612cc0565b818152846020838601011115612052578283fd5b816020850160208301379081016020019190915292915050565b60006020828403121561207d578081fd5b61208682611f74565b9392505050565b6000806040838503121561209f578081fd5b6120a883611f74565b91506120b660208401611f74565b90509250929050565b600080600080600060a086880312156120d6578081fd5b6120df86611f74565b94506120ed60208701611f74565b9350604086013567ffffffffffffffff80821115612109578283fd5b61211589838a01611f8b565b9450606088013591508082111561212a578283fd5b61213689838a01611f8b565b9350608088013591508082111561214b578283fd5b5061215888828901611ffd565b9150509295509295909350565b600080600080600060a0868803121561217c578081fd5b61218586611f74565b945061219360208701611f74565b93506040860135925060608601359150608086013567ffffffffffffffff8111156121bc578182fd5b61215888828901611ffd565b600080604083850312156121da578182fd5b6121e383611f74565b915060208301356121f381612ddd565b809150509250929050565b60008060408385031215612210578182fd5b61221983611f74565b946020939093013593505050565b60008060408385031215612239578182fd5b823567ffffffffffffffff80821115612250578384fd5b818501915085601f830112612263578384fd5b8135602061227082612c0a565b60405161227d8282612cc0565b8381528281019150858301838502870184018b101561229a578889fd5b8896505b848710156122c3576122af81611f74565b83526001969096019591830191830161229e565b50965050860135925050808211156122d9578283fd5b506122e685828601611f8b565b9150509250929050565b600060208284031215612301578081fd5b815161208681612ddd565b60006020828403121561231d578081fd5b813561208681612deb565b600060208284031215612339578081fd5b815161208681612deb565b600060208284031215612355578081fd5b5035919050565b6000815180845260208085019450808401835b8381101561238b5781518752958201959082019060010161236f565b509495945050505050565b60008151808452815b818110156123bb5760208185018101518683018201520161239f565b818111156123cc5782602083870101525b50601f01601f19169290920160200192915050565b6001600160a01b0386811682528516602082015260a06040820181905260009061240d9083018661235c565b828103606084015261241f818661235c565b905082810360808401526124338185612396565b98975050505050505050565b6001600160a01b039384168152919092166020820152604081019190915260600190565b6001600160a01b03868116825285166020820152604081018490526060810183905260a06080820181905260009061249d90830184612396565b979650505050505050565b600060208252612086602083018461235c565b6000604082526124ce604083018561235c565b82810360208401526124e0818561235c565b95945050505050565b901515815260200190565b6001600160a01b0391909116815260200190565b6000602082526120866020830184612396565b60208082526034908201527f455243313135353a207472616e7366657220746f206e6f6e20455243313135356040820152732932b1b2b4bb32b91034b6b83632b6b2b73a32b960611b606082015260800190565b6020808252602f908201527f455243313135353a2063616c6c6572206973206e6f7420746f6b656e206f776e60408201526e195c881b9bdc88185c1c1c9bdd9959608a1b606082015260800190565b60208082526028908201527f455243313135353a204552433131353552656365697665722072656a656374656040820152676420746f6b656e7360c01b606082015260800190565b602080825260149082015273796f75206e65656420686176652061204c69666560601b604082015260600190565b6020808252601590820152743cb7ba903732b2b2103430bb329030902bb0ba32b960591b604082015260600190565b60208082526018908201527f796f75206e6565642068617665206120436f6d70757465720000000000000000604082015260600190565b6020808252601490820152733cb7ba903732b2b2103430bb329030902930b4b760611b604082015260600190565b602080825260169082015275796f75206e6565642068617665206120456e6572677960501b604082015260600190565b6020808252601390820152721e5bdd481b995959081a185d99481848135d59606a1b604082015260600190565b6020808252601490820152731e5bdd481b995959081a185d9948184813995c9960621b604082015260600190565b6020808252601a908201527f796f75206e6565642068617665206120426c6f636b636861696e000000000000604082015260600190565b6020808252602a908201527f455243313135353a2061646472657373207a65726f206973206e6f742061207660408201526930b634b21037bbb732b960b11b606082015260800190565b602080825260149082015273796f75206e6565642068617665206120526f636b60601b604082015260600190565b602080825260149082015273796f75206e65656420686176652061204669726560601b604082015260600190565b6020808252601590820152740f2deea40dccacac840d0c2ecca40c2408ac2e4e8d605b1b604082015260600190565b6020808252601390820152723cb7ba903732b2b2103430bb3290309020b4b960691b604082015260600190565b60208082526025908201527f455243313135353a207472616e7366657220746f20746865207a65726f206164604082015264647265737360d81b606082015260800190565b6020808252601b908201527f796f75206e6565642068617665206120456c6563747269636974790000000000604082015260600190565b6020808252602a908201527f455243313135353a20696e73756666696369656e742062616c616e636520666f60408201526939103a3930b739b332b960b11b606082015260800190565b6020808252601590820152741e5bdd481b995959081a185d99481848141b185b9d605a1b604082015260600190565b6020808252601a908201527f796f75206e6565642068617665206120457965676c6173736573000000000000604082015260600190565b6020808252601590820152741e5bdd481b995959081a185d9948184813595d185b605a1b604082015260600190565b602080825260159082015274796f75206e6565642068617665206120476c61737360581b604082015260600190565b602080825260149082015273796f75206e65656420686176652061204c61766160601b604082015260600190565b6020808252601490820152731e5bdd481b995959081a185d9948184814d85b9960621b604082015260600190565b60208082526029908201527f455243313135353a2073657474696e6720617070726f76616c20737461747573604082015268103337b91039b2b63360b91b606082015260800190565b60208082526029908201527f455243313135353a206163636f756e747320616e6420696473206c656e677468604082015268040dad2e6dac2e8c6d60bb1b606082015260800190565b60208082526028908201527f455243313135353a2069647320616e6420616d6f756e7473206c656e677468206040820152670dad2e6dac2e8c6d60c31b606082015260800190565b60208082526021908201527f455243313135353a206d696e7420746f20746865207a65726f206164647265736040820152607360f81b606082015260800190565b60208082526018908201527f796f75206e6565642068617665206120496e7465726e65740000000000000000604082015260600190565b6020808252601590820152743cb7ba903732b2b2103430bb32903090243ab6b0b760591b604082015260600190565b90815260200190565b918252602082015260400190565b600067ffffffffffffffff821115612c2457612c24612d1e565b5060209081020190565b60008219821115612c4157612c41612d08565b500190565b600082612c6157634e487b7160e01b81526012600452602481fd5b500490565b6000816000190483118215151615612c8057612c80612d08565b500290565b600281046001821680612c9957607f821691505b60208210811415612cba57634e487b7160e01b600052602260045260246000fd5b50919050565b601f8201601f1916810167ffffffffffffffff81118282101715612ce657612ce6612d1e565b6040525050565b6000600019821415612d0157612d01612d08565b5060010190565b634e487b7160e01b600052601160045260246000fd5b634e487b7160e01b600052604160045260246000fd5b600060033d111561089a57600481823e5160e01c90565b600060443d1015612d5b5761089a565b6040516003193d81016004833e81513d67ffffffffffffffff8160248401118184111715612d8d57505050505061089a565b8285019150815181811115612da75750505050505061089a565b843d8701016020828501011115612dc35750505050505061089a565b612dd260208286010187612cc0565b509094505050505090565b80151581146109c357600080fd5b6001600160e01b0319811681146109c357600080fdfea2646970667358221220df255542bac8cc54ab026c5f4f1e7f53dd6b55d079dd334c062f701b07ee927d64736f6c6343000801003368747470733a2f2f676174657761792e70696e6174612e636c6f75642f697066732f516d613375544b6e574c57564c375a4232466764344a79315a70774552504c3575556a704271525a4d325767327a2f7b69647d2e6a736f6e",
  "linkReferences": {},
  "deployedLinkReferences": {}
}