{
  "_format": "hh-sol-artifact-1",
  "contractName": "NFTMarket",
  "sourceName": "contracts/marketplace.sol",
  "abi": [
    {
      "inputs": [],
      "stateMutability": "nonpayable",
      "type": "constructor"
    },
    {
      "anonymous": false,
      "inputs": [
        {
          "indexed": true,
          "internalType": "uint256",
          "name": "itemId",
          "type": "uint256"
        },
        {
          "indexed": true,
          "internalType": "address",
          "name": "nftContract",
          "type": "address"
        },
        {
          "indexed": true,
          "internalType": "uint256",
          "name": "tokenId",
          "type": "uint256"
        },
        {
          "indexed": false,
          "internalType": "address",
          "name": "seller",
          "type": "address"
        },
        {
          "indexed": false,
          "internalType": "address",
          "name": "owner",
          "type": "address"
        },
        {
          "indexed": false,
          "internalType": "uint256",
          "name": "price",
          "type": "uint256"
        },
        {
          "indexed": false,
          "internalType": "bool",
          "name": "sold",
          "type": "bool"
        }
      ],
      "name": "MarketItemCreated",
      "type": "event"
    },
    {
      "inputs": [
        {
          "internalType": "address",
          "name": "nftContract",
          "type": "address"
        },
        {
          "internalType": "uint256",
          "name": "tokenId",
          "type": "uint256"
        },
        {
          "internalType": "uint256",
          "name": "price",
          "type": "uint256"
        }
      ],
      "name": "createMarketItem",
      "outputs": [],
      "stateMutability": "payable",
      "type": "function"
    },
    {
      "inputs": [
        {
          "internalType": "address",
          "name": "nftContract",
          "type": "address"
        },
        {
          "internalType": "uint256",
          "name": "itemId",
          "type": "uint256"
        }
      ],
      "name": "createMarketSale",
      "outputs": [],
      "stateMutability": "payable",
      "type": "function"
    },
    {
      "inputs": [],
      "name": "fetchItemsCreated",
      "outputs": [
        {
          "components": [
            {
              "internalType": "uint256",
              "name": "itemId",
              "type": "uint256"
            },
            {
              "internalType": "address",
              "name": "nftContract",
              "type": "address"
            },
            {
              "internalType": "uint256",
              "name": "tokenId",
              "type": "uint256"
            },
            {
              "internalType": "address payable",
              "name": "seller",
              "type": "address"
            },
            {
              "internalType": "address payable",
              "name": "owner",
              "type": "address"
            },
            {
              "internalType": "uint256",
              "name": "price",
              "type": "uint256"
            },
            {
              "internalType": "bool",
              "name": "sold",
              "type": "bool"
            }
          ],
          "internalType": "struct NFTMarket.MarketItem[]",
          "name": "",
          "type": "tuple[]"
        }
      ],
      "stateMutability": "view",
      "type": "function"
    },
    {
      "inputs": [],
      "name": "fetchMarketItems",
      "outputs": [
        {
          "components": [
            {
              "internalType": "uint256",
              "name": "itemId",
              "type": "uint256"
            },
            {
              "internalType": "address",
              "name": "nftContract",
              "type": "address"
            },
            {
              "internalType": "uint256",
              "name": "tokenId",
              "type": "uint256"
            },
            {
              "internalType": "address payable",
              "name": "seller",
              "type": "address"
            },
            {
              "internalType": "address payable",
              "name": "owner",
              "type": "address"
            },
            {
              "internalType": "uint256",
              "name": "price",
              "type": "uint256"
            },
            {
              "internalType": "bool",
              "name": "sold",
              "type": "bool"
            }
          ],
          "internalType": "struct NFTMarket.MarketItem[]",
          "name": "",
          "type": "tuple[]"
        }
      ],
      "stateMutability": "view",
      "type": "function"
    },
    {
      "inputs": [],
      "name": "fetchMyNFTs",
      "outputs": [
        {
          "components": [
            {
              "internalType": "uint256",
              "name": "itemId",
              "type": "uint256"
            },
            {
              "internalType": "address",
              "name": "nftContract",
              "type": "address"
            },
            {
              "internalType": "uint256",
              "name": "tokenId",
              "type": "uint256"
            },
            {
              "internalType": "address payable",
              "name": "seller",
              "type": "address"
            },
            {
              "internalType": "address payable",
              "name": "owner",
              "type": "address"
            },
            {
              "internalType": "uint256",
              "name": "price",
              "type": "uint256"
            },
            {
              "internalType": "bool",
              "name": "sold",
              "type": "bool"
            }
          ],
          "internalType": "struct NFTMarket.MarketItem[]",
          "name": "",
          "type": "tuple[]"
        }
      ],
      "stateMutability": "view",
      "type": "function"
    },
    {
      "inputs": [],
      "name": "getListingPrice",
      "outputs": [
        {
          "internalType": "uint256",
          "name": "",
          "type": "uint256"
        }
      ],
      "stateMutability": "view",
      "type": "function"
    },
    {
      "inputs": [
        {
          "internalType": "address",
          "name": "",
          "type": "address"
        },
        {
          "internalType": "address",
          "name": "",
          "type": "address"
        },
        {
          "internalType": "uint256[]",
          "name": "",
          "type": "uint256[]"
        },
        {
          "internalType": "uint256[]",
          "name": "",
          "type": "uint256[]"
        },
        {
          "internalType": "bytes",
          "name": "",
          "type": "bytes"
        }
      ],
      "name": "onERC1155BatchReceived",
      "outputs": [
        {
          "internalType": "bytes4",
          "name": "",
          "type": "bytes4"
        }
      ],
      "stateMutability": "nonpayable",
      "type": "function"
    },
    {
      "inputs": [
        {
          "internalType": "address",
          "name": "",
          "type": "address"
        },
        {
          "internalType": "address",
          "name": "",
          "type": "address"
        },
        {
          "internalType": "uint256",
          "name": "",
          "type": "uint256"
        },
        {
          "internalType": "uint256",
          "name": "",
          "type": "uint256"
        },
        {
          "internalType": "bytes",
          "name": "",
          "type": "bytes"
        }
      ],
      "name": "onERC1155Received",
      "outputs": [
        {
          "internalType": "bytes4",
          "name": "",
          "type": "bytes4"
        }
      ],
      "stateMutability": "nonpayable",
      "type": "function"
    },
    {
      "inputs": [
        {
          "internalType": "address",
          "name": "",
          "type": "address"
        },
        {
          "internalType": "address",
          "name": "",
          "type": "address"
        },
        {
          "internalType": "uint256",
          "name": "",
          "type": "uint256"
        },
        {
          "internalType": "bytes",
          "name": "",
          "type": "bytes"
        }
      ],
      "name": "onERC721Received",
      "outputs": [
        {
          "internalType": "bytes4",
          "name": "",
          "type": "bytes4"
        }
      ],
      "stateMutability": "nonpayable",
      "type": "function"
    },
    {
      "inputs": [
        {
          "internalType": "address",
          "name": "_account",
          "type": "address"
        }
      ],
      "name": "setfundAddress",
      "outputs": [],
      "stateMutability": "nonpayable",
      "type": "function"
    }
  ],
  "bytecode": "0x608060405265b5e620f4800060055534801561001a57600080fd5b506001600055600380546001600160a01b0319163317905561117a806100416000396000f3fe6080604052600436106100915760003560e01c8063a151939f11610059578063a151939f1461013a578063bc197c811461015a578063c23b139e1461017a578063f064c32e1461018d578063f23a6e61146101a257610091565b80630f08efe01461009657806312e85585146100c1578063150b7a02146100e3578063202e37401461011057806358eb2df514610125575b600080fd5b3480156100a257600080fd5b506100ab6101c2565b6040516100b89190610edb565b60405180910390f35b3480156100cd57600080fd5b506100d6610373565b6040516100b89190611094565b3480156100ef57600080fd5b506101036100fe366004610d49565b610379565b6040516100b89190610f6f565b34801561011c57600080fd5b506100ab610389565b610138610133366004610e3b565b610570565b005b34801561014657600080fd5b50610138610155366004610c82565b610761565b34801561016657600080fd5b50610103610175366004610ca3565b61079a565b610138610188366004610e12565b6107ab565b34801561019957600080fd5b506100ab610939565b3480156101ae57600080fd5b506101036101bd366004610daf565b610b20565b606060006101d06001610b31565b905060006101de6002610b31565b6101e86001610b31565b6101f291906110e6565b90506000808267ffffffffffffffff81111561021e57634e487b7160e01b600052604160045260246000fd5b60405190808252806020026020018201604052801561025757816020015b610244610b42565b81526020019060019003908161023c5790505b50905060005b8481101561036a5760006006816102758460016110ce565b81526020810191909152604001600020600401546001600160a01b031614156103585760006102a58260016110ce565b600081815260066020818152604092839020835160e0810185528154815260018201546001600160a01b039081169382019390935260028201549481019490945260038101548216606085015260048101549091166080840152600581015460a08401529081015460ff16151560c083015285519293509185908790811061033d57634e487b7160e01b600052603260045260246000fd5b60209081029190910101526103536001866110ce565b945050505b80610362816110fd565b91505061025d565b50935050505090565b60055490565b630a85bd0160e11b949350505050565b606060006103976001610b31565b905060008060005b838110156103fa5733600660006103b78460016110ce565b81526020810191909152604001600020600401546001600160a01b031614156103e8576103e56001846110ce565b92505b806103f2816110fd565b91505061039f565b5060008267ffffffffffffffff81111561042457634e487b7160e01b600052604160045260246000fd5b60405190808252806020026020018201604052801561045d57816020015b61044a610b42565b8152602001906001900390816104425790505b50905060005b8481101561036a57336006600061047b8460016110ce565b81526020810191909152604001600020600401546001600160a01b0316141561055e5760006104ab8260016110ce565b600081815260066020818152604092839020835160e0810185528154815260018201546001600160a01b039081169382019390935260028201549481019490945260038101548216606085015260048101549091166080840152600581015460a08401529081015460ff16151560c083015285519293509185908790811061054357634e487b7160e01b600052603260045260246000fd5b60209081029190910101526105596001866110ce565b945050505b80610568816110fd565b915050610463565b6002600054141561059c5760405162461bcd60e51b815260040161059390611026565b60405180910390fd5b6002600055806105be5760405162461bcd60e51b81526004016105939061105d565b60055434146105df5760405162461bcd60e51b815260040161059390610fe2565b6105e96001610b39565b60006105f56001610b31565b6040805160e0810182528281526001600160a01b0380881660208084018281528486018a8152336060870181815260006080890181815260a08a018e815260c08b018381528d8452600698899052928c90209a518b55955160018b81018054928c166001600160a01b0319938416179055955160028c0155925160038b018054918b16918516919091179055516004808b01805492909a16919093161790975592516005880155945195909201805495151560ff19909616959095179094559351637921219560e11b81529495509363f242432a936106d99330928a929101610e96565b600060405180830381600087803b1580156106f357600080fd5b505af1158015610707573d6000803e3d6000fd5b5050505082846001600160a01b0316827f045dfa01dcba2b36aba1d3dc4a874f4b0c5d2fbeb8d2c4b34a7d88c8d8f929d133600087600060405161074e9493929190610e6d565b60405180910390a4505060016000555050565b6003546001600160a01b0316331461077857600080fd5b600480546001600160a01b0319166001600160a01b0392909216919091179055565b63bc197c8160e01b95945050505050565b600260005414156107ce5760405162461bcd60e51b815260040161059390611026565b6002600081815582815260066020526040902060058101549101543482146108085760405162461bcd60e51b815260040161059390610f84565b6000838152600660205260408082206003015490516001600160a01b03909116913480156108fc02929091818181858888f19350505050158015610850573d6000803e3d6000fd5b50604051637921219560e11b81526001600160a01b0385169063f242432a9061088490309033908690600190600401610e96565b600060405180830381600087803b15801561089e57600080fd5b505af11580156108b2573d6000803e3d6000fd5b50505060008481526006602081905260409091206004810180546001600160a01b0319163317905501805460ff19166001179055506108f16002610b39565b6004546005546040516001600160a01b039092169181156108fc0291906000818181858888f1935050505015801561092d573d6000803e3d6000fd5b50506001600055505050565b606060006109476001610b31565b905060008060005b838110156109aa5733600660006109678460016110ce565b81526020810191909152604001600020600301546001600160a01b03161415610998576109956001846110ce565b92505b806109a2816110fd565b91505061094f565b5060008267ffffffffffffffff8111156109d457634e487b7160e01b600052604160045260246000fd5b604051908082528060200260200182016040528015610a0d57816020015b6109fa610b42565b8152602001906001900390816109f25790505b50905060005b8481101561036a573360066000610a2b8460016110ce565b81526020810191909152604001600020600301546001600160a01b03161415610b0e576000610a5b8260016110ce565b600081815260066020818152604092839020835160e0810185528154815260018201546001600160a01b039081169382019390935260028201549481019490945260038101548216606085015260048101549091166080840152600581015460a08401529081015460ff16151560c0830152855192935091859087908110610af357634e487b7160e01b600052603260045260246000fd5b6020908102919091010152610b096001866110ce565b945050505b80610b18816110fd565b915050610a13565b63f23a6e6160e01b95945050505050565b80545b919050565b80546001019055565b6040805160e081018252600080825260208201819052918101829052606081018290526080810182905260a0810182905260c081019190915290565b80356001600160a01b0381168114610b3457600080fd5b600082601f830112610ba5578081fd5b8135602067ffffffffffffffff821115610bc157610bc161112e565b808202610bcf82820161109d565b838152828101908684018388018501891015610be9578687fd5b8693505b85841015610c0b578035835260019390930192918401918401610bed565b50979650505050505050565b600082601f830112610c27578081fd5b813567ffffffffffffffff811115610c4157610c4161112e565b610c54601f8201601f191660200161109d565b818152846020838601011115610c68578283fd5b816020850160208301379081016020019190915292915050565b600060208284031215610c93578081fd5b610c9c82610b7e565b9392505050565b600080600080600060a08688031215610cba578081fd5b610cc386610b7e565b9450610cd160208701610b7e565b9350604086013567ffffffffffffffff80821115610ced578283fd5b610cf989838a01610b95565b94506060880135915080821115610d0e578283fd5b610d1a89838a01610b95565b93506080880135915080821115610d2f578283fd5b50610d3c88828901610c17565b9150509295509295909350565b60008060008060808587031215610d5e578384fd5b610d6785610b7e565b9350610d7560208601610b7e565b925060408501359150606085013567ffffffffffffffff811115610d97578182fd5b610da387828801610c17565b91505092959194509250565b600080600080600060a08688031215610dc6578081fd5b610dcf86610b7e565b9450610ddd60208701610b7e565b93506040860135925060608601359150608086013567ffffffffffffffff811115610e06578182fd5b610d3c88828901610c17565b60008060408385031215610e24578182fd5b610e2d83610b7e565b946020939093013593505050565b600080600060608486031215610e4f578283fd5b610e5884610b7e565b95602085013595506040909401359392505050565b6001600160a01b0394851681529290931660208301526040820152901515606082015260800190565b6001600160a01b0394851681529290931660208301526040820152606081019190915260a060808201819052600490820152630307830360e41b60c082015260e00190565b602080825282518282018190526000919060409081850190868401855b82811015610f6257815180518552868101516001600160a01b039081168887015286820151878701526060808301518216908701526080808301519091169086015260a0808201519086015260c09081015115159085015260e09093019290850190600101610ef8565b5091979650505050505050565b6001600160e01b031991909116815260200190565b602080825260409082018190527f506c65617365207375626d6974207468652061736b696e672070726963652069908201527f6e206f7264657220746f20636f6d706c65746520746865207075726368617365606082015260800190565b60208082526024908201527f5072696365206d75737420626520657175616c20746f206c697374696e6720706040820152637269636560e01b606082015260800190565b6020808252601f908201527f5265656e7472616e637947756172643a207265656e7472616e742063616c6c00604082015260600190565b6020808252601c908201527f5072696365206d757374206265206174206c6561737420312077656900000000604082015260600190565b90815260200190565b604051601f8201601f1916810167ffffffffffffffff811182821017156110c6576110c661112e565b604052919050565b600082198211156110e1576110e1611118565b500190565b6000828210156110f8576110f8611118565b500390565b600060001982141561111157611111611118565b5060010190565b634e487b7160e01b600052601160045260246000fd5b634e487b7160e01b600052604160045260246000fdfea26469706673582212208027ca6eb4036d07b4be4c72f7bda76fa0b37a7b470f47144e63312833469a1964736f6c63430008010033",
  "linkReferences": {},
  "deployedLinkReferences": {}
}