{
  "_format": "hh-sol-artifact-1",
  "contractName": "NFTStaking",
  "sourceName": "contracts/NFTStaking.sol",
  "abi": [
    {
      "inputs": [
        {
          "internalType": "contract IERC1155",
          "name": "_nftContract",
          "type": "address"
        },
        {
          "internalType": "contract IERC20",
          "name": "_rewardToken",
          "type": "address"
        },
        {
          "internalType": "uint256",
          "name": "_rewardPerBlock",
          "type": "uint256"
        }
      ],
      "stateMutability": "nonpayable",
      "type": "constructor"
    },
    {
      "anonymous": false,
      "inputs": [
        {
          "indexed": true,
          "internalType": "address",
          "name": "user",
          "type": "address"
        },
        {
          "indexed": false,
          "internalType": "uint256",
          "name": "amount",
          "type": "uint256"
        },
        {
          "indexed": false,
          "internalType": "uint256",
          "name": "index",
          "type": "uint256"
        }
      ],
      "name": "ClaimBox",
      "type": "event"
    },
    {
      "anonymous": false,
      "inputs": [
        {
          "indexed": true,
          "internalType": "address",
          "name": "user",
          "type": "address"
        },
        {
          "indexed": false,
          "internalType": "uint256",
          "name": "amount",
          "type": "uint256"
        }
      ],
      "name": "Claimed",
      "type": "event"
    },
    {
      "anonymous": false,
      "inputs": [
        {
          "indexed": true,
          "internalType": "address",
          "name": "previousOwner",
          "type": "address"
        },
        {
          "indexed": true,
          "internalType": "address",
          "name": "newOwner",
          "type": "address"
        }
      ],
      "name": "OwnershipTransferred",
      "type": "event"
    },
    {
      "anonymous": false,
      "inputs": [
        {
          "indexed": true,
          "internalType": "address",
          "name": "user",
          "type": "address"
        },
        {
          "indexed": true,
          "internalType": "uint256",
          "name": "tokenId",
          "type": "uint256"
        },
        {
          "indexed": false,
          "internalType": "uint256",
          "name": "amount",
          "type": "uint256"
        },
        {
          "indexed": false,
          "internalType": "uint256",
          "name": "index",
          "type": "uint256"
        }
      ],
      "name": "Staked",
      "type": "event"
    },
    {
      "anonymous": false,
      "inputs": [
        {
          "indexed": true,
          "internalType": "address",
          "name": "user",
          "type": "address"
        },
        {
          "indexed": true,
          "internalType": "uint256",
          "name": "tokenId",
          "type": "uint256"
        },
        {
          "indexed": false,
          "internalType": "uint256",
          "name": "amount",
          "type": "uint256"
        },
        {
          "indexed": false,
          "internalType": "uint256",
          "name": "index",
          "type": "uint256"
        }
      ],
      "name": "Unstaked",
      "type": "event"
    },
    {
      "inputs": [],
      "name": "BLOCKS_PER_DAY",
      "outputs": [
        {
          "internalType": "uint256",
          "name": "",
          "type": "uint256"
        }
      ],
      "stateMutability": "view",
      "type": "function"
    },
    {
      "inputs": [],
      "name": "MIN_STAKE_AMOUNT",
      "outputs": [
        {
          "internalType": "uint256",
          "name": "",
          "type": "uint256"
        }
      ],
      "stateMutability": "view",
      "type": "function"
    },
    {
      "inputs": [],
      "name": "RewardBox",
      "outputs": [
        {
          "internalType": "uint256",
          "name": "",
          "type": "uint256"
        }
      ],
      "stateMutability": "view",
      "type": "function"
    },
    {
      "inputs": [
        {
          "internalType": "address",
          "name": "_user",
          "type": "address"
        },
        {
          "internalType": "uint256",
          "name": "_index",
          "type": "uint256"
        }
      ],
      "name": "calculateReward",
      "outputs": [
        {
          "internalType": "uint256",
          "name": "",
          "type": "uint256"
        }
      ],
      "stateMutability": "view",
      "type": "function"
    },
    {
      "inputs": [
        {
          "internalType": "uint256",
          "name": "_id",
          "type": "uint256"
        }
      ],
      "name": "claimBox",
      "outputs": [],
      "stateMutability": "nonpayable",
      "type": "function"
    },
    {
      "inputs": [],
      "name": "claimRewards",
      "outputs": [],
      "stateMutability": "nonpayable",
      "type": "function"
    },
    {
      "inputs": [
        {
          "internalType": "uint256",
          "name": "_amount",
          "type": "uint256"
        }
      ],
      "name": "depositRewards",
      "outputs": [],
      "stateMutability": "nonpayable",
      "type": "function"
    },
    {
      "inputs": [
        {
          "internalType": "address",
          "name": "_user",
          "type": "address"
        }
      ],
      "name": "getStakingInfo",
      "outputs": [
        {
          "components": [
            {
              "internalType": "uint256",
              "name": "index",
              "type": "uint256"
            },
            {
              "internalType": "uint256",
              "name": "id",
              "type": "uint256"
            },
            {
              "internalType": "uint256",
              "name": "amount",
              "type": "uint256"
            },
            {
              "internalType": "uint256",
              "name": "time",
              "type": "uint256"
            },
            {
              "internalType": "bool",
              "name": "claimed",
              "type": "bool"
            }
          ],
          "internalType": "struct NFTStaking.Stake[]",
          "name": "",
          "type": "tuple[]"
        }
      ],
      "stateMutability": "view",
      "type": "function"
    },
    {
      "inputs": [],
      "name": "lastUpdateBlock",
      "outputs": [
        {
          "internalType": "uint256",
          "name": "",
          "type": "uint256"
        }
      ],
      "stateMutability": "view",
      "type": "function"
    },
    {
      "inputs": [],
      "name": "limitId",
      "outputs": [
        {
          "internalType": "uint256",
          "name": "",
          "type": "uint256"
        }
      ],
      "stateMutability": "view",
      "type": "function"
    },
    {
      "inputs": [],
      "name": "nftContract",
      "outputs": [
        {
          "internalType": "contract IERC1155",
          "name": "",
          "type": "address"
        }
      ],
      "stateMutability": "view",
      "type": "function"
    },
    {
      "inputs": [
        {
          "internalType": "address",
          "name": "",
          "type": "address"
        },
        {
          "internalType": "address",
          "name": "",
          "type": "address"
        },
        {
          "internalType": "uint256[]",
          "name": "",
          "type": "uint256[]"
        },
        {
          "internalType": "uint256[]",
          "name": "",
          "type": "uint256[]"
        },
        {
          "internalType": "bytes",
          "name": "",
          "type": "bytes"
        }
      ],
      "name": "onERC1155BatchReceived",
      "outputs": [
        {
          "internalType": "bytes4",
          "name": "",
          "type": "bytes4"
        }
      ],
      "stateMutability": "nonpayable",
      "type": "function"
    },
    {
      "inputs": [
        {
          "internalType": "address",
          "name": "",
          "type": "address"
        },
        {
          "internalType": "address",
          "name": "",
          "type": "address"
        },
        {
          "internalType": "uint256",
          "name": "",
          "type": "uint256"
        },
        {
          "internalType": "uint256",
          "name": "",
          "type": "uint256"
        },
        {
          "internalType": "bytes",
          "name": "",
          "type": "bytes"
        }
      ],
      "name": "onERC1155Received",
      "outputs": [
        {
          "internalType": "bytes4",
          "name": "",
          "type": "bytes4"
        }
      ],
      "stateMutability": "nonpayable",
      "type": "function"
    },
    {
      "inputs": [],
      "name": "owner",
      "outputs": [
        {
          "internalType": "address",
          "name": "",
          "type": "address"
        }
      ],
      "stateMutability": "view",
      "type": "function"
    },
    {
      "inputs": [],
      "name": "renounceOwnership",
      "outputs": [],
      "stateMutability": "nonpayable",
      "type": "function"
    },
    {
      "inputs": [],
      "name": "rewardPerBlock",
      "outputs": [
        {
          "internalType": "uint256",
          "name": "",
          "type": "uint256"
        }
      ],
      "stateMutability": "view",
      "type": "function"
    },
    {
      "inputs": [],
      "name": "rewardToken",
      "outputs": [
        {
          "internalType": "contract IERC20",
          "name": "",
          "type": "address"
        }
      ],
      "stateMutability": "view",
      "type": "function"
    },
    {
      "inputs": [],
      "name": "selectedNFT",
      "outputs": [
        {
          "internalType": "uint256",
          "name": "",
          "type": "uint256"
        }
      ],
      "stateMutability": "view",
      "type": "function"
    },
    {
      "inputs": [
        {
          "internalType": "uint256",
          "name": "_limitId",
          "type": "uint256"
        }
      ],
      "name": "setLimitId",
      "outputs": [],
      "stateMutability": "nonpayable",
      "type": "function"
    },
    {
      "inputs": [
        {
          "internalType": "uint256",
          "name": "_amount",
          "type": "uint256"
        }
      ],
      "name": "setRewardBox",
      "outputs": [],
      "stateMutability": "nonpayable",
      "type": "function"
    },
    {
      "inputs": [
        {
          "internalType": "address",
          "name": "_account",
          "type": "address"
        }
      ],
      "name": "setfundAddress",
      "outputs": [],
      "stateMutability": "nonpayable",
      "type": "function"
    },
    {
      "inputs": [
        {
          "internalType": "uint256",
          "name": "_selectedNFT",
          "type": "uint256"
        }
      ],
      "name": "setselectedNFT",
      "outputs": [],
      "stateMutability": "nonpayable",
      "type": "function"
    },
    {
      "inputs": [
        {
          "internalType": "uint256",
          "name": "_id",
          "type": "uint256"
        },
        {
          "internalType": "uint256",
          "name": "_amount",
          "type": "uint256"
        }
      ],
      "name": "stake",
      "outputs": [],
      "stateMutability": "nonpayable",
      "type": "function"
    },
    {
      "inputs": [
        {
          "internalType": "address",
          "name": "",
          "type": "address"
        }
      ],
      "name": "stakedBalance",
      "outputs": [
        {
          "internalType": "uint256",
          "name": "",
          "type": "uint256"
        }
      ],
      "stateMutability": "view",
      "type": "function"
    },
    {
      "inputs": [
        {
          "internalType": "address",
          "name": "",
          "type": "address"
        },
        {
          "internalType": "uint256",
          "name": "",
          "type": "uint256"
        }
      ],
      "name": "stakes",
      "outputs": [
        {
          "internalType": "uint256",
          "name": "index",
          "type": "uint256"
        },
        {
          "internalType": "uint256",
          "name": "id",
          "type": "uint256"
        },
        {
          "internalType": "uint256",
          "name": "amount",
          "type": "uint256"
        },
        {
          "internalType": "uint256",
          "name": "time",
          "type": "uint256"
        },
        {
          "internalType": "bool",
          "name": "claimed",
          "type": "bool"
        }
      ],
      "stateMutability": "view",
      "type": "function"
    },
    {
      "inputs": [
        {
          "internalType": "bytes4",
          "name": "interfaceId",
          "type": "bytes4"
        }
      ],
      "name": "supportsInterface",
      "outputs": [
        {
          "internalType": "bool",
          "name": "",
          "type": "bool"
        }
      ],
      "stateMutability": "view",
      "type": "function"
    },
    {
      "inputs": [],
      "name": "totalStaked",
      "outputs": [
        {
          "internalType": "uint256",
          "name": "",
          "type": "uint256"
        }
      ],
      "stateMutability": "view",
      "type": "function"
    },
    {
      "inputs": [],
      "name": "totalTokenReward",
      "outputs": [
        {
          "internalType": "uint256",
          "name": "",
          "type": "uint256"
        }
      ],
      "stateMutability": "view",
      "type": "function"
    },
    {
      "inputs": [
        {
          "internalType": "address",
          "name": "newOwner",
          "type": "address"
        }
      ],
      "name": "transferOwnership",
      "outputs": [],
      "stateMutability": "nonpayable",
      "type": "function"
    },
    {
      "inputs": [
        {
          "internalType": "uint256",
          "name": "_index",
          "type": "uint256"
        }
      ],
      "name": "unstake",
      "outputs": [],
      "stateMutability": "nonpayable",
      "type": "function"
    }
  ],
  "bytecode": "0x60806040523480156200001157600080fd5b5060405162001efb38038062001efb8339810160408190526200003491620000dd565b620000486200004262000089565b6200008d565b60018055600280546001600160a01b039485166001600160a01b031991821617909155600380549390941692169190911790915560085543600a556200013d565b3390565b600080546001600160a01b038381166001600160a01b0319831681178455604051919092169283917f8be0079c531659141344cd1fd0a4f28419497f9722a3daafe3b4186f6b6457e09190a35050565b600080600060608486031215620000f2578283fd5b8351620000ff8162000124565b6020850151909350620001128162000124565b80925050604084015190509250925092565b6001600160a01b03811681146200013a57600080fd5b50565b611dae806200014d6000396000f3fe608060405234801561001057600080fd5b50600436106101da5760003560e01c8063817b1cd211610104578063a218141b116100a2578063d56d229d11610071578063d56d229d146103a6578063f23a6e61146103ae578063f2fde38b146103c1578063f7c618c1146103d4576101da565b8063a218141b14610356578063aa4704f31461035e578063bc197c811461037e578063cefe33a01461039e576101da565b80638da5cb5b116100de5780638da5cb5b1461031357806398fb15ef14610328578063a0c4900a14610330578063a151939f14610343576101da565b8063817b1cd2146102f05780638ae39cac146102f85780638bdf67f214610300576101da565b80633a87286b1161017c5780636bb987fe1161014b5780636bb987fe146102ba578063715018a6146102c25780637240d19d146102ca5780637b0472f0146102dd576101da565b80633a87286b14610268578063584b62a11461027057806360217267146102945780636a2f16c0146102a7576101da565b80631852e8d9116101b85780631852e8d91461023257806327ed7188146102455780632e17de781461024d578063372500ab14610260576101da565b806301ffc9a7146101df57806306bad7951461020857806311cc49551461021d575b600080fd5b6101f26101ed36600461175e565b6103dc565b6040516101ff91906118ea565b60405180910390f35b61021b610216366004611786565b610409565b005b610225610416565b6040516101ff9190611c56565b610225610240366004611715565b61041c565b6102256105eb565b61021b61025b366004611786565b6105f0565b61021b61084c565b610225610a00565b61028361027e366004611715565b610a06565b6040516101ff959493929190611c6d565b6102256102a23660046115f2565b610a57565b61021b6102b5366004611786565b610a69565b610225610a76565b61021b610a7c565b61021b6102d8366004611786565b610a90565b61021b6102eb3660046117b6565b610ad0565b610225610db4565b610225610dba565b61021b61030e366004611786565b610dc0565b61031b610e6d565b6040516101ff91906117d7565b610225610e7c565b61021b61033e366004611786565b610e82565b61021b6103513660046115f2565b61109c565b6102256110c6565b61037161036c3660046115f2565b6110cc565b6040516101ff919061187a565b61039161038c36600461160c565b6112e9565b6040516101ff91906118f5565b6102256112fa565b61031b611380565b6103916103bc3660046116b2565b61138f565b61021b6103cf3660046115f2565b6113a0565b61031b6113d7565b60006001600160e01b03198216630271189760e51b14806104015750610401826113e6565b90505b919050565b6104116113ff565b600755565b60065481565b60006001600160a01b03831661044d5760405162461bcd60e51b815260040161044490611ade565b60405180910390fd5b6001600160a01b0383166000908152600b602052604090205482106104845760405162461bcd60e51b81526004016104449061196b565b6001600160a01b0383166000908152600b602052604081208054849081106104bc57634e487b7160e01b600052603260045260246000fd5b906000526020600020906005020190508060020154600014156104e35760009150506105e5565b600481015460ff161515600114156104ff5760009150506105e5565b600061051882600301544361143e90919063ffffffff16565b90508061052a576000925050506105e5565b6000611680821161053b578161053f565b6116805b90506000806014856001015411610558575060196105a5565b84600101546015141561056d575060326105a5565b8460010154601614156105825750604b6105a5565b846001015460171415610597575060646105a5565b6000955050505050506105e5565b6105dd60646105d76009546105d7856105d18b600201546105d16008548c61145190919063ffffffff16565b90611451565b9061145d565b955050505050505b92915050565b600181565b600260015414156106135760405162461bcd60e51b815260040161044490611ba5565b6002600155336000908152600b6020526040812080548390811061064757634e487b7160e01b600052603260045260246000fd5b60009182526020909120600590910201600481015490915060ff161561067f5760405162461bcd60e51b815260040161044490611bdc565b600061068b338461041c565b9050600081116106ad5760405162461bcd60e51b815260040161044490611b76565b60048201805460ff191660011790556002820154336000908152600c6020526040812080549091906106e0908490611d1a565b90915550506002820154600980546000906106fc908490611d1a565b909155505060035460405163a9059cbb60e01b81526001600160a01b039091169063a9059cbb906107339033908590600401611861565b602060405180830381600087803b15801561074d57600080fd5b505af1158015610761573d6000803e3d6000fd5b505050506040513d601f19601f82011682018060405250810190610785919061173e565b5060028054600184015491840154604051637921219560e11b81526001600160a01b039092169263f242432a926107c59230923392909190600401611829565b600060405180830381600087803b1580156107df57600080fd5b505af11580156107f3573d6000803e3d6000fd5b505050508160010154336001600160a01b03167f204fccf0d92ed8d48f204adb39b2e81e92bad0dedb93f5716ca9478cfb57de0084600201548660405161083b929190611c5f565b60405180910390a350506001805550565b6002600154141561086f5760405162461bcd60e51b815260040161044490611ba5565b60026001556000805b336000908152600b602052604090205481101561091257336000908152600b602052604081208054839081106108be57634e487b7160e01b600052603260045260246000fd5b60009182526020909120600590910201600481015490915060ff166108ff5760006108e9338461041c565b90506108f58185611cc3565b4360038401559350505b508061090a81611d31565b915050610878565b50600081116109335760405162461bcd60e51b815260040161044490611934565b60035460405163a9059cbb60e01b81526001600160a01b039091169063a9059cbb906109659033908590600401611861565b602060405180830381600087803b15801561097f57600080fd5b505af1158015610993573d6000803e3d6000fd5b505050506040513d601f19601f820116820180604052508101906109b7919061173e565b50336001600160a01b03167fd8138f8a3f377c5259ca548e70e4c2de94f129f5a11036a15b69513cba2b426a826040516109f19190611c56565b60405180910390a25060018055565b60075481565b600b6020528160005260406000208181548110610a2257600080fd5b600091825260209091206005909102018054600182015460028301546003840154600490940154929550909350919060ff1685565b600c6020526000908152604090205481565b610a716113ff565b600655565b61168081565b610a846113ff565b610a8e6000611469565b565b610a986113ff565b6202a300600a5443610aaa9190611d1a565b11610ac75760405162461bcd60e51b815260040161044490611b13565b60055543600a55565b6001811015610af15760405162461bcd60e51b815260040161044490611b3f565b600254604051627eeac760e11b815282916001600160a01b03169062fdd58e90610b219033908790600401611861565b60206040518083038186803b158015610b3957600080fd5b505afa158015610b4d573d6000803e3d6000fd5b505050506040513d601f19601f82011682018060405250810190610b71919061179e565b1015610b8f5760405162461bcd60e51b815260040161044490611a74565b60025460405163e985e9c560e01b81526001600160a01b039091169063e985e9c590610bc190339030906004016117eb565b60206040518083038186803b158015610bd957600080fd5b505afa158015610bed573d6000803e3d6000fd5b505050506040513d601f19601f82011682018060405250810190610c11919061173e565b610c2d5760405162461bcd60e51b815260040161044490611c1f565b600754821015610c4f5760405162461bcd60e51b8152600401610444906119a2565b600254604051637921219560e11b81526001600160a01b039091169063f242432a90610c85903390309087908790600401611829565b600060405180830381600087803b158015610c9f57600080fd5b505af1158015610cb3573d6000803e3d6000fd5b5050336000818152600b602090815260408083208054825160a0810184528181528085018b81528185018b815243606084019081526080840189815260018087018855968a52888a209451600587029095019485559251958401959095555160028301559251600382015591516004909201805460ff191692151592909217909155938352600c9091528120805492945085935091610d53908490611cc3565b925050819055508160096000828254610d6c9190611cc3565b9091555050604051839033907fb4caaf29adda3eefee3ad552a8e85058589bf834c7466cae4ee58787f70589ed90610da79086908690611c5f565b60405180910390a3505050565b60095481565b60085481565b610dc86113ff565b6003546040516323b872dd60e01b81526001600160a01b03909116906323b872dd90610dfc90339030908690600401611805565b602060405180830381600087803b158015610e1657600080fd5b505af1158015610e2a573d6000803e3d6000fd5b505050506040513d601f19601f82011682018060405250810190610e4e919061173e565b610e6a5760405162461bcd60e51b815260040161044490611a3d565b50565b6000546001600160a01b031690565b60055481565b60026001541415610ea55760405162461bcd60e51b815260040161044490611ba5565b60026001556005548114610ecb5760405162461bcd60e51b81526004016104449061190a565b600254604051627eeac760e11b81526001916001600160a01b03169062fdd58e90610efc9033908690600401611861565b60206040518083038186803b158015610f1457600080fd5b505afa158015610f28573d6000803e3d6000fd5b505050506040513d601f19601f82011682018060405250810190610f4c919061179e565b1015610f6a5760405162461bcd60e51b815260040161044490611a0e565b60035460065460405163a9059cbb60e01b81526001600160a01b039092169163a9059cbb91610f9e91339190600401611861565b602060405180830381600087803b158015610fb857600080fd5b505af1158015610fcc573d6000803e3d6000fd5b505050506040513d601f19601f82011682018060405250810190610ff0919061173e565b5060025460048054604051637921219560e11b81526001600160a01b039384169363f242432a9361102b933393921691879160019101611829565b600060405180830381600087803b15801561104557600080fd5b505af1158015611059573d6000803e3d6000fd5b50505050336001600160a01b03167f11bfaf60eebd894c6d21a0d285021c776491f52e54bb18eeda5dc016c02177ab6006546005546040516109f1929190611c5f565b6110a46113ff565b600480546001600160a01b0319166001600160a01b0392909216919091179055565b600a5481565b6001600160a01b0381166000908152600b60209081526040808320805482518185028101850190935280835260609493849084015b828210156111645760008481526020908190206040805160a081018252600586029092018054835260018082015484860152600282015492840192909252600381015460608401526004015460ff16151560808301529083529092019101611101565b5050505090506000805b82518110156111c75782818151811061119757634e487b7160e01b600052603260045260246000fd5b6020026020010151608001516111b557816111b181611d31565b9250505b806111bf81611d31565b91505061116e565b5060008167ffffffffffffffff8111156111f157634e487b7160e01b600052604160045260246000fd5b60405190808252806020026020018201604052801561122a57816020015b6112176114bd565b81526020019060019003908161120f5790505b5090506000805b84518110156112de5784818151811061125a57634e487b7160e01b600052603260045260246000fd5b6020026020010151608001516112cc5784818151811061128a57634e487b7160e01b600052603260045260246000fd5b60200260200101518383815181106112b257634e487b7160e01b600052603260045260246000fd5b602002602001018190525081806112c890611d31565b9250505b806112d681611d31565b915050611231565b509095945050505050565b63bc197c8160e01b95945050505050565b6003546040516370a0823160e01b81526000916001600160a01b0316906370a082319061132b9030906004016117d7565b60206040518083038186803b15801561134357600080fd5b505afa158015611357573d6000803e3d6000fd5b505050506040513d601f19601f8201168201806040525081019061137b919061179e565b905090565b6002546001600160a01b031681565b63f23a6e6160e01b95945050505050565b6113a86113ff565b6001600160a01b0381166113ce5760405162461bcd60e51b8152600401610444906119c8565b610e6a81611469565b6003546001600160a01b031681565b6001600160e01b031981166301ffc9a760e01b14919050565b6114076114b9565b6001600160a01b0316611418610e6d565b6001600160a01b031614610a8e5760405162461bcd60e51b815260040161044490611aa9565b600061144a8284611d1a565b9392505050565b600061144a8284611cfb565b600061144a8284611cdb565b600080546001600160a01b038381166001600160a01b0319831681178455604051919092169283917f8be0079c531659141344cd1fd0a4f28419497f9722a3daafe3b4186f6b6457e09190a35050565b3390565b6040518060a00160405280600081526020016000815260200160008152602001600081526020016000151581525090565b80356001600160a01b038116811461040457600080fd5b600082601f830112611515578081fd5b8135602067ffffffffffffffff82111561153157611531611d62565b80820261153f828201611c92565b838152828101908684018388018501891015611559578687fd5b8693505b8584101561157b57803583526001939093019291840191840161155d565b50979650505050505050565b600082601f830112611597578081fd5b813567ffffffffffffffff8111156115b1576115b1611d62565b6115c4601f8201601f1916602001611c92565b8181528460208386010111156115d8578283fd5b816020850160208301379081016020019190915292915050565b600060208284031215611603578081fd5b61144a826114ee565b600080600080600060a08688031215611623578081fd5b61162c866114ee565b945061163a602087016114ee565b9350604086013567ffffffffffffffff80821115611656578283fd5b61166289838a01611505565b94506060880135915080821115611677578283fd5b61168389838a01611505565b93506080880135915080821115611698578283fd5b506116a588828901611587565b9150509295509295909350565b600080600080600060a086880312156116c9578081fd5b6116d2866114ee565b94506116e0602087016114ee565b93506040860135925060608601359150608086013567ffffffffffffffff811115611709578182fd5b6116a588828901611587565b60008060408385031215611727578182fd5b611730836114ee565b946020939093013593505050565b60006020828403121561174f578081fd5b8151801515811461144a578182fd5b60006020828403121561176f578081fd5b81356001600160e01b03198116811461144a578182fd5b600060208284031215611797578081fd5b5035919050565b6000602082840312156117af578081fd5b5051919050565b600080604083850312156117c8578182fd5b50508035926020909101359150565b6001600160a01b0391909116815260200190565b6001600160a01b0392831681529116602082015260400190565b6001600160a01b039384168152919092166020820152604081019190915260600190565b6001600160a01b0394851681529290931660208301526040820152606081019190915260a06080820181905260009082015260c00190565b6001600160a01b03929092168252602082015260400190565b602080825282518282018190526000919060409081850190868401855b828110156118dd57815180518552868101518786015285810151868601526060808201519086015260809081015115159085015260a09093019290850190600101611897565b5091979650505050505050565b901515815260200190565b6001600160e01b031991909116815260200190565b60208082526010908201526f1b9bdd08139195081cd95b1958dd195960821b604082015260600190565b6020808252601f908201527f4e46545374616b696e673a206e6f207265776172647320746f20636c61696d00604082015260600190565b6020808252601f908201527f4e46545374616b696e673a20696e76616c6964207374616b6520696e64657800604082015260600190565b6020808252600c908201526b6e6f74207374616b61626c6560a01b604082015260600190565b60208082526026908201527f4f776e61626c653a206e6577206f776e657220697320746865207a65726f206160408201526564647265737360d01b606082015260800190565b60208082526015908201527420696e73756666696369656e742062616c616e636560581b604082015260600190565b6020808252601a908201527f4e46545374616b696e673a204465706f736974206661696c6564000000000000604082015260600190565b6020808252818101527f4e46545374616b696e673a20696e73756666696369656e742062616c616e6365604082015260600190565b6020808252818101527f4f776e61626c653a2063616c6c6572206973206e6f7420746865206f776e6572604082015260600190565b6020808252818101527f4e46545374616b696e673a20696e76616c696420757365722061646472657373604082015260600190565b6020808252601290820152711b9bdd081d1a5b59481d1bc81cd95b1958dd60721b604082015260600190565b6020808252601a908201527f4e46545374616b696e673a20616d6f756e7420746f6f206c6f77000000000000604082015260600190565b60208082526015908201527413919514dd185ada5b99ce881b9bc81c995dd85c99605a1b604082015260600190565b6020808252601f908201527f5265656e7472616e637947756172643a207265656e7472616e742063616c6c00604082015260600190565b60208082526023908201527f4e46545374616b696e673a207265776172647320616c726561647920636c61696040820152621b595960ea1b606082015260800190565b60208082526018908201527f4e46545374616b696e673a206e6f7420617070726f7665640000000000000000604082015260600190565b90815260200190565b918252602082015260400190565b9485526020850193909352604084019190915260608301521515608082015260a00190565b604051601f8201601f1916810167ffffffffffffffff81118282101715611cbb57611cbb611d62565b604052919050565b60008219821115611cd657611cd6611d4c565b500190565b600082611cf657634e487b7160e01b81526012600452602481fd5b500490565b6000816000190483118215151615611d1557611d15611d4c565b500290565b600082821015611d2c57611d2c611d4c565b500390565b6000600019821415611d4557611d45611d4c565b5060010190565b634e487b7160e01b600052601160045260246000fd5b634e487b7160e01b600052604160045260246000fdfea26469706673582212209b10d5a0eb9453752c2e1c92c5e4049e62d64d2e8f56182605a8ae547a9beef664736f6c63430008010033",
  "linkReferences": {},
  "deployedLinkReferences": {}
}